{"abi":[{"type":"constructor","inputs":[{"name":"_token","type":"address","internalType":"contract Token"}],"stateMutability":"nonpayable"},{"name":"Borrow","type":"event","inputs":[{"name":"user","type":"address","indexed":true,"internalType":"address"},{"name":"collateralEtherAmount","type":"uint256","indexed":false,"internalType":"uint256"},{"name":"borrowedTokenAmount","type":"uint256","indexed":false,"internalType":"uint256"}],"anonymous":false},{"name":"Deposit","type":"event","inputs":[{"name":"user","type":"address","indexed":true,"internalType":"address"},{"name":"etherAmount","type":"uint256","indexed":false,"internalType":"uint256"},{"name":"timeStart","type":"uint256","indexed":false,"internalType":"uint256"}],"anonymous":false},{"name":"PayOff","type":"event","inputs":[{"name":"user","type":"address","indexed":true,"internalType":"address"},{"name":"fee","type":"uint256","indexed":false,"internalType":"uint256"}],"anonymous":false},{"name":"Withdraw","type":"event","inputs":[{"name":"user","type":"address","indexed":true,"internalType":"address"},{"name":"etherAmount","type":"uint256","indexed":false,"internalType":"uint256"},{"name":"depositTime","type":"uint256","indexed":false,"internalType":"uint256"},{"name":"interest","type":"uint256","indexed":false,"internalType":"uint256"}],"anonymous":false},{"name":"collateralEther","type":"function","inputs":[{"name":"","type":"address","internalType":"address"}],"outputs":[{"name":"","type":"uint256","internalType":"uint256"}],"constant":true,"stateMutability":"view"},{"name":"depositStart","type":"function","inputs":[{"name":"","type":"address","internalType":"address"}],"outputs":[{"name":"","type":"uint256","internalType":"uint256"}],"constant":true,"stateMutability":"view"},{"name":"etherBalanceOf","type":"function","inputs":[{"name":"","type":"address","internalType":"address"}],"outputs":[{"name":"","type":"uint256","internalType":"uint256"}],"constant":true,"stateMutability":"view"},{"name":"isBorrowed","type":"function","inputs":[{"name":"","type":"address","internalType":"address"}],"outputs":[{"name":"","type":"bool","internalType":"bool"}],"constant":true,"stateMutability":"view"},{"name":"isDeposited","type":"function","inputs":[{"name":"","type":"address","internalType":"address"}],"outputs":[{"name":"","type":"bool","internalType":"bool"}],"constant":true,"stateMutability":"view"},{"name":"deposit","type":"function","inputs":[],"outputs":[],"payable":true,"stateMutability":"payable"},{"name":"withdraw","type":"function","inputs":[],"outputs":[],"stateMutability":"nonpayable"},{"name":"borrow","type":"function","inputs":[],"outputs":[],"payable":true,"stateMutability":"payable"},{"name":"payOff","type":"function","inputs":[],"outputs":[],"stateMutability":"nonpayable"}],"devdoc":{"kind":"dev","methods":{},"version":1},"source":"// SPDX-License-Identifier: MIT\npragma solidity >=0.6.0 <0.8.0;\n\nimport \"./Token.sol\";\n\ncontract dBank {\n\n  //assign Token contract to variable\n  Token private token;\n\n  //add mappings\n  mapping(address => uint) public depositStart;\n  mapping(address => uint) public etherBalanceOf;\n  mapping(address => uint) public collateralEther;\n\n  mapping(address => bool) public isDeposited;\n  mapping(address => bool) public isBorrowed;\n\n  //add events\n  event Deposit(address indexed user, uint etherAmount, uint timeStart);\n  event Withdraw(address indexed user, uint etherAmount, uint depositTime, uint interest);\n  event Borrow(address indexed user, uint collateralEtherAmount, uint borrowedTokenAmount);\n  event PayOff(address indexed user, uint fee);\n\n  //pass as constructor argument deployed Token contract\n  constructor(Token _token) public {\n    //assign token deployed contract to variable\n    token = _token;\n  }\n\n  function deposit() payable public {\n    //check if msg.sender didn't already deposited funds\n    require(isDeposited[msg.sender] == false, 'Error, deposit already active');\n    //check if msg.value is >= than 0.01 ETH\n    require(msg.value>=1e16, 'Error, deposit must be >= 0.01 ETH');\n\n    //increase msg.sender ether deposit balance\n    etherBalanceOf[msg.sender] = etherBalanceOf[msg.sender] + msg.value;\n    //start msg.sender hodling time\n    depositStart[msg.sender] = depositStart[msg.sender] + block.timestamp;\n\n    //set msg.sender deposit status to true\n    isDeposited[msg.sender] = true; //activate deposit status\n    //emit Deposit event\n    emit Deposit(msg.sender, msg.value, block.timestamp);\n  }\n\n  function withdraw() public {\n    //check if msg.sender deposit status is true\n    require(isDeposited[msg.sender]==true, 'Error, no previous deposit');\n    //assign msg.sender ether deposit balance to variable for event\n    uint userBalance = etherBalanceOf[msg.sender]; //for event\n\n    //check user's hodl time\n    uint depositTime = block.timestamp - depositStart[msg.sender];\n\n    //calc interest per second\n    \n    //31668017 - interest(10% APY) per second for min. deposit amount (0.01 ETH), cuz:\n    //1e15(10% of 0.01 ETH) / 31577600 (seconds in 365.25 days)\n\n    //(etherBalanceOf[msg.sender] / 1e16) - calc. how much higher interest will be (based on deposit), e.g.:\n    //for min. deposit (0.01 ETH), (etherBalanceOf[msg.sender] / 1e16) = 1 (the same, 31668017/s)\n    //for deposit 0.02 ETH, (etherBalanceOf[msg.sender] / 1e16) = 2 (doubled, (2*31668017)/s)\n    uint interestPerSecond = 31668017 * (etherBalanceOf[msg.sender] / 1e16);\n\n    //calc accrued interest\n    uint interest = interestPerSecond * depositTime;\n\n    //send eth to user\n    msg.sender.transfer(etherBalanceOf[msg.sender]); //eth back to user\n    //send interest in tokens to user\n    token.mint(msg.sender, interest); //interest to user\n\n    //reset depositer data\n    depositStart[msg.sender] = 0;\n    etherBalanceOf[msg.sender] = 0;\n    isDeposited[msg.sender] = false;\n    //emit event\n    emit Withdraw(msg.sender, userBalance, depositTime, interest);\n  }\n\n  function borrow() payable public {\n    //check if collateral is >= than 0.01 ETH\n    //check if user doesn't have active loan\n    require(msg.value>=1e16, 'Error, collateral must be >= 0.01 ETH');\n    require(isBorrowed[msg.sender] == false, 'Error, loan already taken');\n\n    //this Ether will be locked till user payOff the loan\n    collateralEther[msg.sender] = collateralEther[msg.sender] + msg.value;\n\n    //calc tokens amount to mint, 50% of msg.value\n    uint tokensToMint = collateralEther[msg.sender] / 2;\n\n    //mint&send tokens to user\n    token.mint(msg.sender, tokensToMint);\n\n    //activate borrower's loan status\n    isBorrowed[msg.sender] = true;\n    //emit event\n    emit Borrow(msg.sender, collateralEther[msg.sender], tokensToMint);\n\n  }\n\n  function payOff() public {\n    //check if loan is active\n    //transfer tokens from user back to the contract\n\n    //calc fee\n\n    //send user's collateral minus fee\n\n    //reset borrower's data\n\n    //emit event\n  }\n}","userdoc":{"kind":"user","methods":{},"version":1},"bytecode":"0x608060405234801561001057600080fd5b50604051610efd380380610efd8339818101604052602081101561003357600080fd5b8101908080519060200190929190505050806000806101000a81548173ffffffffffffffffffffffffffffffffffffffff021916908373ffffffffffffffffffffffffffffffffffffffff16021790555050610e69806100946000396000f3fe6080604052600436106100865760003560e01c806375a40d2a1161005957806375a40d2a14610185578063cdebd932146101ea578063d0e30db014610251578063e68d35691461025b578063ff87930a1461026557610086565b8063179fc99f1461008b5780633ccfd60b146100f05780633fac68d514610107578063737320241461011e575b600080fd5b34801561009757600080fd5b506100da600480360360208110156100ae57600080fd5b81019080803573ffffffffffffffffffffffffffffffffffffffff1690602001909291905050506102ca565b6040518082815260200191505060405180910390f35b3480156100fc57600080fd5b506101056102e2565b005b34801561011357600080fd5b5061011c610708565b005b34801561012a57600080fd5b5061016d6004803603602081101561014157600080fd5b81019080803573ffffffffffffffffffffffffffffffffffffffff16906020019092919050505061070a565b60405180821515815260200191505060405180910390f35b34801561019157600080fd5b506101d4600480360360208110156101a857600080fd5b81019080803573ffffffffffffffffffffffffffffffffffffffff16906020019092919050505061072a565b6040518082815260200191505060405180910390f35b3480156101f657600080fd5b506102396004803603602081101561020d57600080fd5b81019080803573ffffffffffffffffffffffffffffffffffffffff169060200190929190505050610742565b60405180821515815260200191505060405180910390f35b610259610762565b005b610263610a42565b005b34801561027157600080fd5b506102b46004803603602081101561028857600080fd5b81019080803573ffffffffffffffffffffffffffffffffffffffff169060200190929190505050610dd4565b6040518082815260200191505060405180910390f35b60026020528060005260406000206000915090505481565b60011515600460003373ffffffffffffffffffffffffffffffffffffffff1673ffffffffffffffffffffffffffffffffffffffff16815260200190815260200160002060009054906101000a900460ff161515146103a8576040517f08c379a000000000000000000000000000000000000000000000000000000000815260040180806020018281038252601a8152602001807f4572726f722c206e6f2070726576696f7573206465706f73697400000000000081525060200191505060405180910390fd5b6000600260003373ffffffffffffffffffffffffffffffffffffffff1673ffffffffffffffffffffffffffffffffffffffff1681526020019081526020016000205490506000600160003373ffffffffffffffffffffffffffffffffffffffff1673ffffffffffffffffffffffffffffffffffffffff16815260200190815260200160002054420390506000662386f26fc10000600260003373ffffffffffffffffffffffffffffffffffffffff1673ffffffffffffffffffffffffffffffffffffffff168152602001908152602001600020548161048357fe5b046301e33731029050600082820290503373ffffffffffffffffffffffffffffffffffffffff166108fc600260003373ffffffffffffffffffffffffffffffffffffffff1673ffffffffffffffffffffffffffffffffffffffff168152602001908152602001600020549081150290604051600060405180830381858888f19350505050158015610518573d6000803e3d6000fd5b5060008054906101000a900473ffffffffffffffffffffffffffffffffffffffff1673ffffffffffffffffffffffffffffffffffffffff166340c10f1933836040518363ffffffff1660e01b8152600401808373ffffffffffffffffffffffffffffffffffffffff16815260200182815260200192505050600060405180830381600087803b1580156105aa57600080fd5b505af11580156105be573d6000803e3d6000fd5b505050506000600160003373ffffffffffffffffffffffffffffffffffffffff1673ffffffffffffffffffffffffffffffffffffffff168152602001908152602001600020819055506000600260003373ffffffffffffffffffffffffffffffffffffffff1673ffffffffffffffffffffffffffffffffffffffff168152602001908152602001600020819055506000600460003373ffffffffffffffffffffffffffffffffffffffff1673ffffffffffffffffffffffffffffffffffffffff16815260200190815260200160002060006101000a81548160ff0219169083151502179055503373ffffffffffffffffffffffffffffffffffffffff167f02f25270a4d87bea75db541cdfe559334a275b4a233520ed6c0a2429667cca9485858460405180848152602001838152602001828152602001935050505060405180910390a250505050565b565b60046020528060005260406000206000915054906101000a900460ff1681565b60036020528060005260406000206000915090505481565b60056020528060005260406000206000915054906101000a900460ff1681565b60001515600460003373ffffffffffffffffffffffffffffffffffffffff1673ffffffffffffffffffffffffffffffffffffffff16815260200190815260200160002060009054906101000a900460ff16151514610828576040517f08c379a000000000000000000000000000000000000000000000000000000000815260040180806020018281038252601d8152602001807f4572726f722c206465706f73697420616c72656164792061637469766500000081525060200191505060405180910390fd5b662386f26fc10000341015610888576040517f08c379a0000000000000000000000000000000000000000000000000000000008152600401808060200182810382526022815260200180610ded6022913960400191505060405180910390fd5b34600260003373ffffffffffffffffffffffffffffffffffffffff1673ffffffffffffffffffffffffffffffffffffffff1681526020019081526020016000205401600260003373ffffffffffffffffffffffffffffffffffffffff1673ffffffffffffffffffffffffffffffffffffffff1681526020019081526020016000208190555042600160003373ffffffffffffffffffffffffffffffffffffffff1673ffffffffffffffffffffffffffffffffffffffff1681526020019081526020016000205401600160003373ffffffffffffffffffffffffffffffffffffffff1673ffffffffffffffffffffffffffffffffffffffff168152602001908152602001600020819055506001600460003373ffffffffffffffffffffffffffffffffffffffff1673ffffffffffffffffffffffffffffffffffffffff16815260200190815260200160002060006101000a81548160ff0219169083151502179055503373ffffffffffffffffffffffffffffffffffffffff167f90890809c654f11d6e72a28fa60149770a0d11ec6c92319d6ceb2bb0a4ea1a153442604051808381526020018281526020019250505060405180910390a2565b662386f26fc10000341015610aa2576040517f08c379a0000000000000000000000000000000000000000000000000000000008152600401808060200182810382526025815260200180610e0f6025913960400191505060405180910390fd5b60001515600560003373ffffffffffffffffffffffffffffffffffffffff1673ffffffffffffffffffffffffffffffffffffffff16815260200190815260200160002060009054906101000a900460ff16151514610b68576040517f08c379a00000000000000000000000000000000000000000000000000000000081526004018080602001828103825260198152602001807f4572726f722c206c6f616e20616c72656164792074616b656e0000000000000081525060200191505060405180910390fd5b34600360003373ffffffffffffffffffffffffffffffffffffffff1673ffffffffffffffffffffffffffffffffffffffff1681526020019081526020016000205401600360003373ffffffffffffffffffffffffffffffffffffffff1673ffffffffffffffffffffffffffffffffffffffff1681526020019081526020016000208190555060006002600360003373ffffffffffffffffffffffffffffffffffffffff1673ffffffffffffffffffffffffffffffffffffffff1681526020019081526020016000205481610c3857fe5b04905060008054906101000a900473ffffffffffffffffffffffffffffffffffffffff1673ffffffffffffffffffffffffffffffffffffffff166340c10f1933836040518363ffffffff1660e01b8152600401808373ffffffffffffffffffffffffffffffffffffffff16815260200182815260200192505050600060405180830381600087803b158015610ccc57600080fd5b505af1158015610ce0573d6000803e3d6000fd5b505050506001600560003373ffffffffffffffffffffffffffffffffffffffff1673ffffffffffffffffffffffffffffffffffffffff16815260200190815260200160002060006101000a81548160ff0219169083151502179055503373ffffffffffffffffffffffffffffffffffffffff167fe1979fe4c35e0cef342fef5668e2c8e7a7e9f5d5d1ca8fee0ac6c427fa4153af600360003373ffffffffffffffffffffffffffffffffffffffff1673ffffffffffffffffffffffffffffffffffffffff1681526020019081526020016000205483604051808381526020018281526020019250505060405180910390a250565b6001602052806000526040600020600091509050548156fe4572726f722c206465706f736974206d757374206265203e3d20302e3031204554484572726f722c20636f6c6c61746572616c206d757374206265203e3d20302e303120455448a2646970667358221220d45540a24dd2d5141c2262f8bdd9b3027115b24afc616c16dfb9c1b09730bbf564736f6c63430007060033","compiler":{"name":"solc","version":"0.7.6+commit.7338295f.Emscripten.clang"},"updatedAt":"2021-05-02T20:51:28.073Z","sourcePath":"/home/builduser/teams_workingdir/repo/src/contracts/dBank.sol","networkType":"ethereum","contractName":"dBank","schemaVersion":"3.4.0","immutableReferences":{}}